:1000000014C02CC02BC02AC029C028C04CC026C098
:1000100025C024C023C022C021C020C01FC01EC0D4
:100020001DC01CC01BC01AC019C011241FBECFEDBB
:10003000CDBF10E0A0E6B0E0E6E9F1E002C0059037
:100040000D92AE36B107D9F720E0AEE6B0E001C0C0
:100050001D92A437B207E1F711D09BC0D1CF86B370
:1000600081FD08C09091730091FF04C080937300DC
:1000700081E008958093730080E008951ABA87E0C4
:100080008BBB81E087BB9FEF98BB9FE791BB82BB97
:1000900093E090BF92E099BF91E396BF83BD8AE061
:1000A00083BF7894FFCF1F920F920FB60F92112447
:1000B0002F933F934F935F936F937F938F939F9370
:1000C000AF93BF93EF93FF93809171009091720073
:1000D00001969093720080937100E0916000F0E0CF
:1000E000EE0FFF1FEF59FF4F2081318182179307D9
:1000F00078F010927200109271009091700081E07F
:10010000892780937000882311F0C09A01C0C0989D
:1001100080916E0090916F0001968436910528F4CD
:1001200090936F0080936E0019C010926F00109230
:100130006E0095DF882391F080916000811104C0EA
:1001400085E08093600008C0815080936000811139
:1001500003C087E386BF02C081E386BF81E090E0F1
:100160000090600002C0880F991F0A94E2F782BBDA
:10017000FF91EF91BF91AF919F918F917F916F917F
:100180005F914F913F912F910F900FBE0F901F9055
:060190001895F894FFCF62
:0E01960005010002000A006400E803102700C3
:00000001FF
